:020000040800F2
:10000000301000200101000831120008051100081D
:100010002D1200081B0700087924000800000000CA
:1000200000000000000000000000000009170008A8
:10003000590E00080000000055140008C5200008F3
:100040001B0100081B0100081B0100081B01000820
:100050001B0100081B0100081B0100081B01000810
:100060001B0100081B0100081B0100081B01000800
:100070001B0100081B0100081B0100081B010008F0
:100080001B0100081B0100081B0100081B010008E0
:10009000BD2300081B0100081B0100081B0100080C
:1000A0001B010008292100081B0100081B01000892
:1000B0001B0100081B0100081B0100081B010008B0
:1000C0001B0100081B0100081B0100081B010008A0
:1000D0001B0100081B0100081B0100081B01000890
:1000E0001B0100081B0100083D210008DFF80CD0AF
:1000F00000F0FCF800480047E92800083010002014
:100100000648804706480047FEE7FEE7FEE7FEE7B1
:10011000FEE7FEE7FEE7FEE7FEE7FEE7C920000890
:10012000ED0000080FB400B589B00BA800906A4636
:1001300003480A9900F0D0F809B05DF814FB0000FC
:10014000380100202DE9FF5F1D464FF0FF3BD5E948
:10015000014691465F464FF00008A9697F1C01984F
:100160008847296A824688470028F6D1BAF1FF3FBE
:100170000CD024F4C064002E19DD600614D5BAF149
:100180002B0F09D0BAF12D0F0ED103E0584604B061
:10019000BDE8F09F44F48064A9697F1C01988847FA
:1001A000761E8246002E02DDBAF1300F03D0B9F17F
:1001B000000F26D032E0A969761E44F400747F1C3B
:1001C000019888478246002E05DDBAF1780F06D0E7
:1001D000BAF1580F03D0B9F1000F10D01EE0B9F1F9
:1001E000000F02D0B9F1100F18D1A969761E24F4BE
:1001F00000747F1C019888478246102002E0082086
:1002000000E00A20814609E008FB0908A969761E7A
:1002100044F400747F1C019888478246002E05DD57
:100220004946504600F04AF80028EDDAE96901989D
:100230008847A00502D46FF00100A8E7E00725D1A8
:10024000600613D5600502D5C8F1000000E0404605
:1002500029680A1D2A600968220501D5087015E081
:10026000220701D5088011E008600FE02868011D11
:1002700029600068210502D580F8008006E021078A
:1002800002D5A0F8008001E0C0F8008038467EE783
:1002900030B50B46014600202022012409E021FA56
:1002A00002F59D4205D303FA02F5491B04FA02F553
:1002B0002844151EA2F10102F1DC30BD3A2800D21B
:1002C000303820F02002412A01D3A2F137008842C1
:1002D00001D34FF0FF307047024B9361024BD36163
:1002E00000F032B8C12800082D030008064C074D65
:1002F00006E0E06840F0010394E8070098471034F6
:10030000AC42F6D3FFF7F6FE342A0008542A000860
:10031000094910B508784C1C18B1401E0870205CC3
:1003200010BD00210720ABBE207010BD0249087827
:10033000421C0A707047000040010020026811440E
:100340001378016018467047D1600449516104492F
:10035000116200211161114600F00AB83D03000846
:1003600065030008C0B24FF4F05100F097B90000E7
:100370002DE9F34F8BB04FF0000801F10C000C4653
:100380004FF0010B46460DF1080A01906269012108
:1003900001989047051E2DD0252D2CD0216A884725
:1003A000C0B16269012101989047216A88470028FD
:1003B000F7D1411E62690198904700E0761CA1695F
:1003C0000B988847216A88470028F7D1E1690B9884
:1003D0008847DBE7A1690B9888470746A84201D107
:1003E000761CD3E7E1690B9888477F1C02D1B8F1EE
:1003F000000F6FD046E1002762693D4639460198FB
:1004000090472A2804D1626901210198904701256B
:10041000DFF884926269012101989047A0F13001D0
:100420000A290AD24F45E5DC07EB870100EB4107BB
:10043000303FDFD445F01005ECE7E90601D46FF05A
:1004400000476C280AD04C2814D0682815D06A2898
:100450000DD074281CD07A281AD01DE062690121C1
:10046000019890476C2802D045F0040514E045F04F
:1004700002050DE045F020050AE0626901210198BE
:100480009047682802D045F0080505E045F400656E
:100490006269012101989047C4E9015765283DD060
:1004A00019DC58287AD00CDC452837D004DC252804
:1004B00026D0412831D131E046282FD047282CD1F1
:1004C0002CE05B2877D0612828D063287CD0642872
:1004D00023D15AE0D0E06F2848D008DC66281DD030
:1004E00067281BD0692821D06E2816D127E07028F4
:1004F00045D0732868D0752847D078280DD14DE0B5
:10050000A1690B988847054625283FF469AFE16942
:100510000B9888476D1C3FF46AAFB3E023466A46E8
:100520006FF001000B99AFF300809EE045F04000B2
:100530006060A80723464FF0000236D43EE0E8078B
:100540007FF447AF2068011D21600068290501D5AF
:1005500006701BE7290701D5068017E7A90703D511
:10056000F117C0E9006111E706600FE745F04000B0
:100570006060A80723464FF0080216D41EE040F63C
:100580000E0125EA0100606016E045F04000606061
:10059000A80723464FF00A0207D40FE045F04000B9
:1005A0006060A80708D5234610226FF001000B9960
:1005B000AFF3008059E007E0234610226FF00100FE
:1005C0000B99FFF7BFFD50E04FF000094F464B4637
:1005D000632802D05B2806D040E0E80601D4012061
:1005E000A06001273AE062690121019890475E28E6
:1005F00005D14FF001096269494601989047216988
:1006000039B900210A46534643F82120491C0829DC
:10061000FADBB0B3216969B9C11700EBD16253119C
:100620000AEB830122F01F02821A01200B6890401E
:1006300003430B6062690121019890475D28E8D16E
:10064000B9F1000F09D00020514651F82020D243C3
:1006500041F82020401C0828F7DB02AB2246009717
:100660006FF001000B99AFF3008000280CDA401CFA
:1006700008D1BBF1000F05D04FF0FF300DB0BDE841
:10068000F08FFFE74046F9E7E90701D108F10108DB
:1006900006444FF0000B79E6CCCCCC0C7F2801D976
:1006A000002208E0064A02EB5002C007127800D18F
:1006B000120902F00F02012090400840704700002C
:1006C000F329000870B58C1810F8015B15F00703CA
:1006D00001D110F8013B2A1106D110F8012B03E0DB
:1006E00010F8016B01F8016B5B1EF9D12B0705D4E3
:1006F0000023521E0DD401F8013BFAE710F8013B2C
:10070000CB1A921C03E013F8015B01F8015B521E47
:10071000F9D5A142D8D3002070BD00BFFEE7014645
:10072000CAB20B1243EA02207047000008B500204D
:10073000009022E19748008800F00F009649087069
:100740000846007800287CD19448006894490880C5
:100750000846008800F030009249088090480088E0
:1007600000F440508E4908808C4909684BF6BF72EE
:1007700001EA020080F4005080F0200040F40041C3
:1007800041F08001854A11608248008800F0100025
:1007900090BB1046006848F60F710840114608608B
:1007A00000F0B2FC7D4909684BF6BF7201EA020015
:1007B0007B49098801F4805109B180F4805078495F
:1007C000098801F4005109B180F400507549098885
:1007D00001F0100109B180F010007249098801F0A0
:1007E000200109B180F0200081B241F4004141F0C4
:1007F00080016A4A116008BDFFE76848006880B25E
:100800000090BDF8000000F40060B0B363480068D9
:10081000C0F30E0048F68F7108406049086001F08F
:1008200029F95E4909684BF6BF7201EA02005C498A
:10083000098801F4805109B180F480505849098831
:1008400000E056E001F4005109B180F40050554930
:10085000098801F0100109B180F0100051490988A0
:1008600001F0200109B180F0200081B241F4004183
:1008700041F08001494A1160BDE7FFE7BDF8000083
:1008800000F40040002878D044480068C0F30E000F
:1008900048F68F7108404149086000F09FFD3F49CC
:1008A00009684BF6BF7201EA02003D49098801F46C
:1008B000805109B180F480503949098801F4005110
:1008C00009B180F400503749098801F0100109B1DD
:1008D00080F010003349098801F0200109B180F04F
:1008E000200081B241F4004141F080012B4A1160A7
:1008F00081E7294800782C4901EB8000D0F8000CF2
:1009000080B20090BDF8000000F40040C0B1224861
:10091000007801EB8000D0F8000CC0F30E0048F620
:100920008F7108401C4909781F4A02EB8101C1F808
:10093000000C19490978491E1C4A52F821008047C9
:10094000BDF8000000F08000B8B1134800781649E7
:1009500001EB8000D0F8000C48F60F7108400E49FA
:100960000978114A02EB8101C1F8000C0A490978A3
:10097000491E0F4A52F82100804708484430006859
:1009800080B20449088000F4004000287FF4D2AE11
:1009900000BF30E73800002020010020005C00404C
:1009A000340100203601002000500040600000208B
:1009B000440000200B4A02EB8001D1F8001C01F436
:1009C000804171B102EB8001D1F8001C48F68F72B2
:1009D00011404CF280021143024B03EB8002C2F83B
:1009E000001C7047005000400B4A02EB8001D1F818
:1009F000001C01F0400171B102EB8001D1F8001C34
:100A000048F68F72114048F2C0021143024B03EBCB
:100A10008002C2F8001C704700500040084A02EBF8
:100A20008001D1F8001C48F68F62114048F2800224
:100A30001143034B03EB8002C2F8001C7047000017
:100A4000005000402DE9F0472848006800F11005EB
:100A50002E8826480068077AD6B9042F18D1244872
:100A6000007801280FD100212248006880B2801C44
:100A7000214A42F8101030202049088000BF002091
:100A80001B49087003E0072710201C49088027E055
:100A9000AC88A64201D8042000E002200746B442F8
:100AA00000D93446A0B2A96888478046002000F0EB
:100AB000FFFA8146A2B24946404601F0DFFCA1B2EE
:100AC000002000F0D5FE2888001B2880688820447C
:100AD000688030200949088000020949088000BF69
:100AE000024909680F72BDE8F08700002401002068
:100AF0001E010020505C00400060004036010020D4
:100B0000340100202DE9F0412848006800F110046C
:100B10002688A068C0B1BEB1A588B54200D93546C7
:100B2000A8B2A168884707462088401B20806088BB
:100B300028446080002000F099FA8046AAB241461D
:100B4000384600F073FC00BF208850B14FF440508D
:100B5000174908800021084600F08AFE3020154918
:100B600008802088A188884204DB03200F49096897
:100B7000087218E02088002804DD05200B49096868
:100B8000087210E0208870B90620084909680872C8
:100B900000210948006880B2801C084A42F8101001
:100BA000302004490880BDE8F081000024010020C5
:100BB0003401002036010020505C004000600040FD
:100BC0002DE9F84F9B48006845780027BA46062D66
:100BD0001BD198480068007800F07F00002813D1EE
:100BE000944909688878012803D193490968CF6935
:100BF0000AE0022803D1904909680F6A04E003283B
:100C000002D18D4909684F6A94E0002D64D189486A
:100C10000068408800285FD186480068C0880228A4
:100C20005AD1844800680079002855D1814800686D
:100C3000007800F07F0028B97E480068808808B9F5
:100C40007E4F77E07B480068007800F07F00012845
:100C500010D1784909684879774909688A6900217B
:100C60009047002866D173480068807A002861D0D8
:100C7000724F5FE06F480068007800F07F00022844
:100C800058D16C480068407900F00F066948006848
:100C9000407900F0700967480068407900F08000F2
:100CA00038B1674901EB8600D0F8000C00F030083D
:100CB00006E0634901EB8600D0F8000C00F44058D0
:100CC00060480078B04235D9B9F1000F32D1B8F19F
:100CD000000F2FD0594F2DE0082D07D1554800683F
:100CE000007800F07F0028BB574F23E00A2D21D168
:100CF00050480068007800F07F0001281AD14D4864
:100D00000068807AB0B14B480068408890B9494883
:100D10000068007970B947480068C088012809D187
:100D2000444909684879444909688A69002190471B
:100D300000B9464F57B13F480068A0F812A03D489F
:100D4000006887610020B84700240FE0394A126824
:100D50005078394A1268116988470446032C05D136
:100D60000920344909680872BDE8F88F31480068E5
:100D7000008A4FF6FF71884204D109202D49096885
:100D80000872F1E7022C03D02A480068008A20B9D3
:100D90000820284909680872E6E7264800680078B4
:100DA00000F08000E0B323480068C088009021482C
:100DB0000068008A0099884204D91E490098096891
:100DC000088223E01B480068008A1A490968C9881C
:100DD00088421BDA17480068008A1749096891F8A9
:100DE0002C10884203DA0020194908700EE01148DF
:100DF0000068008A1049096891F82C1090FBF1F204
:100E000001FB120010B90120114908700A4800685E
:100E100090F82C10074800688182FFF713FE07E066
:100E2000FFE70320034909680872000309490880A5
:100E300000BF99E72401002028010020151D0008AB
:100E40000050004088000020991C0008E91C0008A0
:100E50001E01002034010020704701B54FF47A7262
:100E6000009901FB02F000F001F808BD01B50D4941
:100E70000098096848434FF0E0214861084600693E
:100E800040F00100086100BF4FF0E020006900F46D
:100E900080300028F8D000204FF0E0210861886100
:100EA00008BD00000000002010B500240F480078A5
:100EB000012819D140210E4801F0C6FA84B2002C55
:100EC0000FDD2246C0210A4801F0D8FA2146012050
:100ED00000F0CEFC012000F0F9FC0020054908607C
:100EE00002E000200149087010BD00003000002021
:100EF000740B00203400002010B50649032001F0D7
:100F00008BFA84B22146034801F068FA032000F00E
:100F100085FC10BDB40B002001490860704700003B
:100F2000140401402DE9F04102460025002600206E
:100F300000230024002791F803C00CF00F0591F85E
:100F400003C00CF0100CBCF1000F03D091F802C0EC
:100F50004CEA050591F800C0BCF1000F31D01468CF
:100F600000202BE04FF0010C0CFA00F3B1F800C0A8
:100F70000CEA03069E4220D183004FF00F0C0CFABE
:100F800003F7BC4305FA03FC4CEA040491F803C0E0
:100F9000BCF1280F06D14FF0010C0CFA00FCC2F88E
:100FA00014C00AE091F803C0BCF1480F05D14FF01E
:100FB000010C0CFA00FCC2F810C0401C0828D1D368
:100FC0001460B1F800C0BCF1FF0F34DD546800209C
:100FD0002EE000F1080C4FF0010808FA0CF3B1F80C
:100FE00000C00CEA03069E4221D183004FF00F0C93
:100FF0000CFA03F7BC4305FA03FC4CEA040491F82D
:1010000003C0BCF1280F05D100F1080C08FA0CF858
:10101000C2F8148091F803C0BCF1480F07D100F169
:10102000080C4FF0010808FA0CF8C2F81080401CB8
:101030000828CED35460BDE8F081F8B506460C46CA
:10104000154601211C2000F09DFAADF800408DF8F6
:10105000035003208DF8020069463046FFF762FF17
:10106000F8BD4161704701617047000001460548C5
:10107000006880B200EBC100001D034A32F8100086
:1010800080B27047505C0040006000400146064856
:10109000006880B200EBC100801D044A32F81000E5
:1010A000C0F3090070470000505C00400060004041
:1010B00001460548006880B200EBC100034A32F8DF
:1010C000100080B270470000505C0040006000409B
:1010D00070B50A480468001D0568001D06683444A0
:1010E00054B108220649204600F05EF80422044963
:1010F0001031284600F058F870BD0000E8F7FF1FD7
:101100000A00002000BFFEE710B518480068047A06
:10111000022C01D0042C05D1FFF794FC1348006881
:10112000047A1CE0062C19D1104800684078052884
:101130000ED10E480068007800F07F0040B90B49DE
:101140000968C87800F0EAFA09490968086A80471E
:101150000849096888688047082400E00824034992
:1011600009680C7200F078F910BD0000240100201D
:1011700030010020280100204FF0E020006920F01D
:1011800004004FF0E0210861092005490860084685
:10119000006880B24FF47A71484302490860704792
:1011A000000000200400002030B50B46002100BFE5
:1011B00016E00A24B4EB107F05D9302404EB107438
:1011C00003F8114005E0412404EB10740A3C03F8D5
:1011D0001140000100254C00641C1D554C1CE1B25F
:1011E0009142E6DB30BD000010B504460020054901
:1011F00008602046FFF731FE01200349C1F88C0149
:1012000010BD00008C012142000021420548817A76
:1012100019B10521044A116002E00121024A11605E
:1012200070470000140C00201001002000BFFEE7F2
:101230007047704770B5002100230F22C47804B3B3
:10124000154C246804F4E064C4F5E064210AC1F19B
:101250000403CA40447804FA03F18478144021431B
:1012600009010E4C0678A155047804F01F050124ED
:10127000AC4005786D11AD0005F1E025C5F80041E1
:1012800009E0047804F01F050124AC40044D067801
:10129000761145F8264070BD0CED00E000E400E05A
:1012A00080E100E070B5022647480068447846486F
:1012B0000068007800F07F00002844D1092C03D199
:1012C00000F0A8FD06465FE0052C14D13E480068FA
:1012D000C0787F280BDC3C480068807838B93A48F1
:1012E0000068808818B938480068807A08B10825F5
:1012F00065E0002648E0032C0ED133480068C07832
:10130000012807D130480068808818B900F0A6FD90
:10131000064639E0022637E0012C35D12A4800681C
:10132000C07801280DD128480068808848B926482F
:101330000068407A00F0200018B100F0F7FB064684
:1013400022E0022620E020480068007800F07F00BC
:10135000012805D10B2C17D100F0FCFD064613E047
:1013600019480068007800F07F0002280BD1012C9A
:1013700003D100F0DBFB064606E0032C04D100F0AD
:1013800081FD064600E002264EB1E0B20F4A126827
:10139000516988470646032E01D109250FE00EB199
:1013A00008250CE0062500210948006880B2801C51
:1013B000084A42F8101030200749088000BF02494F
:1013C00009680D7270BD0000240100202801002072
:1013D000505C0040006000403601002010B511480C
:1013E0000068047A022C01D0042C01D1082412E0F8
:1013F000032C01D0052C05D1FFF784FB09480068B8
:10140000047A08E0072C05D107490968C8688047B5
:10141000082400E00824034909680C7200F01CF855
:1014200010BD00002401002028010020F0B5561C4A
:101430007510074E06EB41042B4605E034F8047B9B
:1014400020F8017B401C5B1E002BF7D1F0BD000093
:10145000006000407047000010B50D4890F82C1057
:10146000002000F095F90B480068007A082805D1A3
:101470004002094908801020084908800548006892
:10148000007A092801D1012010BD0020FCE70000EE
:101490008C000020240100203401002036010020AF
:1014A00010B5012000F050FE01240B48046000201C
:1014B0000A49088008460088074908600020091D7D
:1014C00008604FF4E050054908800846008802494A
:1014D0000860002010BD0000405C00402E0100208C
:1014E00003461A60D960596099600020704770B552
:1014F00003461446002200209A6800BF11E0DD6810
:101500001E682E44551C2A46AE4200D8DA685D6833
:10151000954200D107E011F8015B9E6835709A6032
:10152000401CA042EBD300BF70BDF0B503460020C5
:101530000EE05C68651C5D6027780546401C4F55D1
:10154000DC681D682C445D68AC4201D8DC685C60D6
:101550005C689D68AC4204D0904202D21C68844210
:10156000E7D8F0BD29B1064AD2690243044BDA61DB
:1015700004E0034AD2698243014BDA6170470000FC
:101580000010024029B1064A92690243044B9A6155
:1015900004E0034A92698243014B9A61704700005C
:1015A000001002400149086070470000D800424224
:1015B00070B50546072D01D02E4805702D480078DE
:1015C00008284ED2DFE800F004111A202B384E4FC5
:1015D0002948006828B900F053F80620254908700A
:1015E00002E005202349087041E000F049F804209A
:1015F0002049087001202049086038E002201D4978
:1016000048700320087032E01A484078401E19499B
:1016100048700846407808B90420087027E0174849
:10162000006884B244F01004144804600520114995
:1016300008700A2048701AE00E484078401E0D4994
:1016400048700846407858B90C48006884B224F0C5
:1016500010040A480460062008700020064908604B
:1016600005E000BF00BF06200249087000BF00BFB0
:1016700070BD00001501002018010020405C0040F2
:1016800010B50748006884B224F0040404480460DC
:10169000FFF7BCFD4FF43F400149086010BD00005A
:1016A000405C004010B5002413480068052822D192
:1016B00012480078F8B912490868411C104A1160B4
:1016C000052818D100201146086040210D4800F07F
:1016D000BBFE84B2002C0EDD2246C021094800F07A
:1016E000CDFE2146012000F0C3F8012000F0EEF805
:1016F00001200249087010BD1001002030000020B8
:1017000034000020740B0020704700004FF6F87181
:101710000140014A11607047505C004030B50146FD
:101720000F4B1A78002014E003060E4C04EB935381
:10173000D3F8003C48F68F74234048F280042343DA
:10174000C4B223430406074D05EB9454C4F8003C8F
:10175000401C9042E8D341F08003034C236030BD2D
:1017600088000020005000404C5C004010B54A103A
:101770005300054A126892B202EBC002121D034CDC
:1017800044F8123010BD0000505C00400060004082
:1017900010B502460F48006880B200EBC200801D01
:1017A0000D4C04EB40033E290BDD481101F01F04F2
:1017B0000CB9441EA0B24FF4004444EA80241C60DB
:1017C00007E0481001F001040CB1441CA0B28402EF
:1017D0001C6010BD505C00400060004030B50E4CF5
:1017E00004EB8003D3F8003C4BF68F7403EA040249
:1017F00001F480530BB182F4805201F400530BB119
:1018000082F4005242F4004343F08003024D05EBA2
:101810008004C4F8003C30BD0050004010B50B4BB4
:1018200003EB8002D2F8002C4BF68F7302EA03011F
:1018300081F4805181F4005141F4004242F0800271
:10184000024C04EB8003C3F8002C10BD0050004094
:1018500010B54A105200044B1B689BB203EBC00347
:10186000024C44F8132010BD505C00400060004062
:10187000044A126892B202EBC002921C024B43F877
:1018800012107047505C00400060004030B50E4CB4
:1018900004EB8003D3F8003C48F6BF7403EA04026B
:1018A00001F010030BB182F0100201F020030BB124
:1018B00082F0200242F4004343F08003024D05EB26
:1018C0008004C4F8003C30BD0050004010B50B4B04
:1018D00003EB8002D2F8002C48F6BF7302EA030142
:1018E00081F0100181F0200141F4004242F08002B9
:1018F000024C04EB8003C3F8002C10BD00500040E4
:1019000010B5074B03EB8002D2F8002C48F68F137A
:101910001A400A43024C04EB8003C3F8002C10BDAC
:101920000050004010B500F001F810BD0CB50020CB
:10193000019000903348006840F4803031490860DD
:1019400000BF3048006800F4003000900198401C4F
:101950000190009818B90198B0F5A06FF1D129480D
:10196000006800F4003010B10120009001E0002078
:1019700000900098012843D12348006840F01000EF
:10198000214908600846006820F003000860084606
:10199000006840F0020008601A4840681949486031
:1019A0000846406848600846406840F480604860E7
:1019B0000846406820F47C1048600846406840F4BF
:1019C000F81048600846006840F08070086000BF6A
:1019D0000C48006800F000700028F9D00948406801
:1019E00020F00300074948600846406840F00200C4
:1019F000486000BF0348406800F00C000828F9D197
:101A00000CBD0000001002400020024008B54FF459
:101A1000A0620E490E48FFF763FD4FF4A0620D4926
:101A20000D48FFF75DFD01210820FFF7ABFD1020F9
:101A3000ADF8000003208DF8020010208DF803009F
:101A400069460648FFF76EFA08BD000074010020E1
:101A5000540100207406002064010020000C0140A5
:101A600010B50020FFF79EFD0121C805FFF77AFDA4
:101A700010BD000038B501242948006880B2001D5F
:101A8000284931F8100080B201EB40000090264850
:101A90000068007A092832D0009800782249096845
:101AA00008700098401C0090009800781E49096852
:101AB00048700098401C0090009800EB4400009093
:101AC000009931F8020B0091FEF729FE16490968CA
:101AD0004880009800EB44000090009931F8020B18
:101AE0000091FEF71CFE104909688880009800EB01
:101AF00044000090009800880B490968C8800120C4
:101B000009490968087208480068C08810B9FFF7D9
:101B1000C9FB01E0FFF754F8FFF79EFC38BD000059
:101B2000505C004000600040240100202DE9F04797
:101B300054480068007800F07F08B8F1000F0AD11F
:101B400050480068407A00F0DF004E49096848724A
:101B50000020BDE8F087B8F1020F7CD14948006849
:101B6000408818B947480068007908B10220F0E7BA
:101B7000DFF8149143480068477927F080052C4628
:101B800040480068407900F0800038B13F4901EBDF
:101B90008400D0F8000C00F0300606E03B4901EB71
:101BA0008400D0F8000C00F4405699F80000A842D8
:101BB00004D91EB133480068807A08B90220C8E70A
:101BC00007F0800080B1314901EB8400D0F8000CAF
:101BD00000F0300010284BD1E0B2FEF705FFE0B274
:101BE0003021FFF753FE43E0284901EB8400D0F891
:101BF000000C00F44050B0F5805F39D1E4B9244ABC
:101C000092F82C10E0B2FFF7C3FD204A02EB8401EA
:101C1000D1F8001C4BF68F7201EA020080F480506C
:101C200080F4005040F4004141F08001174B03EB79
:101C30008402C2F8001C1BE0E0B2FEF7BBFE134AB0
:101C400002EB8401D1F8001C4BF68F7201EA02000E
:101C500080F4805000E011E080F4005040F4004136
:101C600041F08001094B03EB8402C2F8001C00BF65
:101C7000084909684869804700206AE700BF0220D8
:101C800067E7000024010020880000200050004089
:101C90008C0000203001002010B504462CB9012032
:101CA000064909680882002010BD054909680868CE
:101CB0008047024800680A30F6E70000240100204F
:101CC0003001002010B5024606480068438A32B948
:101CD0008888C01A034C24682082002010BD086840
:101CE0001844FBE72401002010B504462CB901205C
:101CF000064909680882002010BD054909688868FE
:101D00008047024800680C30F6E7000024010020FC
:101D10003001002010B504462CB902203949096869
:101D20000882002010BD002037490880354800682F
:101D3000007800F07F0018BB32490968487A00F04B
:101D4000200131B13049097841F002012E4A117069
:101D500005E02D49097801F0FD012B4A117000F0D2
:101D6000400131B12849097841F00101264A11703A
:101D700005E02549097801F0FE01234A11703AE097
:101D800020480068007800F07F00012801D11E483B
:101D9000C8E71C480068007800F07F00022828D1BE
:101DA000184A1268517901F00F0001F080027AB1EF
:101DB000164B03EB8002D2F8002C02F03002102AFE
:101DC00016D1114A127842F001020F4B1A700FE03F
:101DD0000E4B03EB8002D2F8002C02F44052B2F515
:101DE000805F05D1084A127842F00102064B1A7052
:101DF00001E0002096E70649096808698047024823
:101E000090E70000240100201C0100200050004049
:101E10003001002010B50E480068C0780D4949789F
:101E2000884213DC0A480068807878B9084800685E
:101E3000808858B906480068C078054909688872E2
:101E40000549096848688047002010BD0220FCE76A
:101E500024010020880000203001002010B5074830
:101E60000068407A40F0200004490968487204493B
:101E70000968C8698047002010BD000024010020C7
:101E8000300100202DE9F0412E480068467926F007
:101E900080073C462B480068407900F0800038B14C
:101EA000294901EB8400D0F8000C00F0300506E071
:101EB000254901EB8400D0F8000C00F4405523487C
:101EC0000078A04208D91F480068408820B91DB199
:101ED0001C480068807A10B90220BDE8F08106F045
:101EE0008000A0B1184A02EB8401D1F8001C48F62A
:101EF000BF7201EA020080F0100040F4004141F09E
:101F00008001114B03EB8402C2F8001C14E00E4A5E
:101F100002EB8401D1F8001C4BF68F7201EA02003B
:101F200080F4805040F4004141F08001064B03EB07
:101F30008402C2F8001C00BF05490968886980470F
:101F40000020CAE724010020005000408800002043
:101F50003001002010B5174B1B68D978154B1B6852
:101F60005879154B1B689A699047044611480068D8
:101F7000807AE8B13CB90F480068007918B90D487B
:101F80000068807808B1022010BD8CB90B4909683F
:101F9000C868804707480068407906490968C872E0
:101FA00004480068C0780349096808730020EBE71B
:101FB0000220E9E724010020280100203001002050
:101FC00038B50021002200230093394B1B6898B2DA
:101FD00000BF09E0374C04EB8103D3F8003C9BB20F
:101FE000354C44F82130491C0829F3D340F4806073
:101FF0002F4B186040F00100186020F001001860BD
:1020000000BF2B4B1B1D1B6803F48063002BF8D013
:102010004FF6FF33264C241D2360002109E0264B98
:1020200053F821309BB2234D05EB8104C4F8003CEA
:10203000491C0829F3D340F008001D4B18601B68A9
:1020400098B240F004001A4B18601C4B1B680093B8
:102050001A4B1A6822F0030242F001021A60184B70
:102060001B6843F00403164C2360114B1B1D1B68B7
:1020700003F480532BB923461B6823F00403236029
:1020800014E04EF6FF730A4C241D2360231F1B68C7
:1020900098B220F00800231F1860084C009B2360B2
:1020A000074B1B6823F00403054C236038BD000078
:1020B000405C004000500040F40B002000700040E5
:1020C00010ED00E07047000010B51348006840F0C4
:1020D00001001149086008464068104908400E494F
:1020E0004860084600680E4908400B4908600846E9
:1020F000006820F4802008600846406820F4FE0054
:1021000048604FF41F008860FFF70CFC4FF0006040
:102110000449086010BD0000001002400000FFF8F4
:10212000FFFFF6FE08ED00E00348008820F0010004
:102130000149088070470000102C014010B54FF491
:102140008020FEF7E9FE10BD10B5044624B9102129
:102150000448FEF786FF03E010210248FEF783FFE4
:1021600010BD0000000C014010B5FFF74FFCFFF759
:1021700077FC00F021F800F001F810BD10B5084818
:102180000849086002200968087207480749086082
:10219000074808490860054909680868804710BD74
:1021A000140C0020240100208C00002028010020B5
:1021B000BC0000203001002008B514208DF800007C
:1021C00002208DF8010000208DF8020001208DF81A
:1021D00003006846FFF72EF82A208DF80000002043
:1021E0008DF801006846FFF725F808BD10B588B0E6
:1021F000002469480068694908800846008800F49E
:10220000007067490988084050B14FF6FF50624995
:10221000086064480078401C62490870FFF742FA81
:102220005E48008800F400405D490988084008B114
:10223000FEF77CFA5948008800F480605849098804
:10224000084030B14FF6FF3053490860564948689E
:1022500080475248008800F40050514909880840DE
:1022600018B14DF6FF704C4908604C48008800F4E6
:1022700080504B490988084030B14EF6FF704649FE
:1022800008600020FFF794F94448008800F40060DB
:1022900043490988084060B14448007810B1FFF70D
:1022A0008FFE02E00220FFF783F94FF2FF703A49F8
:1022B00008603A48008800F480703949098808406D
:1022C000002866D04FF6FF6033490860081D00689B
:1022D00000F40040002856D035480068401C3449BE
:1022E000086008460068032850D92B48001F006882
:1022F00000F00800002849D12748001F006880B27C
:102300002C490860002408E02B4901EB8400D0F838
:10231000000C80B24DF82400641C082CF4D325482E
:10232000006840F00100234908600846006880B258
:102330001949091F08601F48006820F001001D4965
:1023400008600846006880B21349091F086000BF92
:102350001148006800F480600028F9D04FF6FF3083
:102360000D490860002408E05DF8240080B2124A9C
:1023700002EB8401C1F8000C641C082CF4D300208B
:102380000B49086002E00020094908600720FFF7B8
:102390000FF908B010BD0000445C00403800002078
:1023A0002E0100203A0000208C00002014010020A3
:1023B0003C000020400000200050004010B5FFF716
:1023C00015FF10BD70B504460D462A462146024849
:1023D000FFF7ABF870BD00005401002070B5044653
:1023E0000D462A4621460248FFF781F870BD0000DD
:1023F000540100200020064908604FF43F40054981
:102400000880084600880249091F086000207047BC
:10241000445C00402E0100202DE9F04104460E46A8
:10242000002504F07F00FEF731FE054604F07F0032
:10243000FEF71CFE07462A4639463046FEF7F6FFF1
:102440002846BDE8F081000070B504460D462A46D6
:1024500021460248FFF769F870BD000064010020C2
:1024600070B504460D462A4621460248FFF73FF85C
:1024700070BD00006401002000BFFEE7F0B5144607
:1024800004F1010C4FEA6C07DFF824C00CEB4103A8
:102490003D460AE00678401C90F800C046EA0C224F
:1024A00023F8022B9B1C401C6D1E002DF2D1F0BDA9
:1024B0000060004070B504460025212C08D1124868
:1024C0000068007800F07F0021280ED10F4D0CE04D
:1024D000202C0AD10C480068007800F07F002128E9
:1024E00000D10B4D20200B4908700DB9022070BDA2
:1024F000054800688561002103480068418200208A
:10250000A8470020F3E7000024010020412500082F
:10251000D12600087C00002010B504460249204660
:10252000FFF7D0FB10BD0000E800002010B5044606
:1025300002492046FFF7C6FB10BD0000E000002066
:10254000014629B90820034A12681082002070470A
:102550000148FCE7240100208000002070B50546FA
:1025600006480068C478042C01DD002070BD0448D2
:1025700000EBC4012846FFF7A5FBF7E72401002084
:10258000F00000200246002901DD02207047012AE8
:1025900001DD0220FAE70020F8E7000001460848C4
:1025A0000068007800F07F00212807D1022901D1BE
:1025B00000207047222901D10020FAE70220F8E725
:1025C0002401002010B5002034490968887234487D
:1025D000C079324909684872002030490968C872D8
:1025E000FFF794F84FF400710020FFF789F91021EC
:1025F0000020FFF74BF940210020FFF7B7F88021BA
:102600000020FFF725F90020FEF708FA254890F88A
:102610002C100020FFF7BCF80020FFF7FFF8002186
:102620000120FFF76DF9C0210120FFF711F92021EA
:102630000120FFF72BF900210120FFF7CFF84FF41D
:10264000C0610220FFF75CF94FF480710220FFF7B0
:10265000FFF800210220FFF7C1F820210220FFF738
:1026600015F900210320FFF74BF94FF4887103207F
:10267000FFF77CF840210320FFF78AF84FF4405120
:102680000320FFF7ABF800210320FFF7FFF800203D
:10269000FFF744F801200449086010BD2401002020
:1026A000662900088C000020100100200348817A70
:1026B00011B10521024A116070470000140C00207E
:1026C000100100200420014908607047100100201B
:1026D000014629B90820034A126810820020704779
:1026E0000148FCE724010020800000200348007816
:1026F000202802D100200149087070477C0000208A
:102700007047000010B5FEF7E3FC0020054909689A
:102710008872FEF7C5FEFFF76DFE002002490860D3
:1027200010BD000024010020100100200FB4054B53
:1027300010B503A9044A029800F018F810BC5DF81F
:1027400014FB0000D92800083C01002002E008C862
:10275000121F08C1002AFAD170477047002001E01B
:1027600001C1121F002AFBD1704700002DE9FF4F65
:1027700089B09B460446002506E025280BD05A4622
:102780000B999047641C6D1C20780028F5D10DB082
:102790002846BDE8F08F0027B8460122474900E0EF
:1027A000074314F8013F203B02FA03F00842F7D137
:1027B00020782E2819D114F8010F47F004072A2891
:1027C0000ED06FF02F022078A0F1300109290CD82B
:1027D00008EB880102EB410100EB0108641CF2E701
:1027E0000A98641C50F8048B0A9020780028CED0F8
:1027F000642808D0692806D075281ED05A460B993F
:1028000090476D1C58E00A994FF00A0901C90A91D6
:10281000002802DA40422D2102E0390504D52B219F
:102820008DF82010012103E0F90704D02021F7E7FB
:102830008A4608AE0DE00021FAE70A994FF00A092E
:1028400001C90A91F7E74946FDF722FD303106F844
:10285000011D0028F7D1ADEB060000F12009780733
:1028600001D44FF00108C84502DDA8EB090000E0E3
:1028700000208046002706E008A85A46C05D0B9954
:1028800090476D1C7F1C5745F6DB04E030205A460C
:102890000B9990476D1CB8F10001A8F10108F5DC17
:1028A00005E016F8010B5A460B9990476D1CB9F1DB
:1028B0000001A9F10109F4DC641C65E709280100A5
:1028C00038B5044600BF01216846FFF77BFD0028AC
:1028D000F9D09DF8000038BD13B50C4601216846BB
:1028E000FFF7BEFD00981CBD08B500200090FEF764
:1028F00043FCFFF739FC102211461148FEF79DFBFF
:10290000142208210E48FEF798FB01200D490860AB
:1029100014E069460CA0FDF705FC0CA00099FFF738
:1029200005FF0848001D006808B9012000E00020EC
:102930000449091D08600098FEF756FCE9E700000D
:10294000000801408C0121422564000025640D0A25
:102950000000000012010002020000408304405702
:1029600000020102030109024300020100C0320912
:1029700004000001020201000524001001052401E9
:102980000001042402020524060001070582030851
:1029900000FF09040100020A0000000705030240CD
:1029A00000000705810240000004030904260342D9
:1029B0000069006E005A0068006F007500580069D9
:1029C000006E0067004A0069005700650069005901
:1029D000006500200358002D00510075006100645F
:1029E0000072006F0074006F00720020005600300B
:1029F000003100DDDDDDDDDCBBBBDDDDDDDDDDDDB2
:102A0000DDDDDD988888888888888877777777778C
:102A10008888888555555666666666666666666603
:102A200068888883333332222222222222222222E1
:102A300028888D00542A000800000020440100006E
:102A4000C4060008E42A000844010020EC0E00003F
:102A50005C27000881142603561269127212741240
:102A6000751261126C12201243124F1A4D08125047
:102A70003A6F181A2002011613A90E0C1C08331203
:102A8000040A11F9245133C20112081A040713056C
:102A9000271408C5251408ED261B08010C13B524BE
:102AA0001B089D101A85041A2D041A19041A5D04B6
:102AB00041324029441AAD2C0916741AC51C13540E
:102AC000293308121A66082A43AC190832041AADD1
:102AD0000832261AD30829D819552A2010412992DC
:042AE000012C0000C5
:04000005080000ED02
:00000001FF
